{
  "_format": "hh-sol-artifact-1",
  "contractName": "ZeroExV3MarketProxy",
  "sourceName": "contracts/forwarder/ZeroExV3MarketProxy.sol",
  "abi": [
    {
      "inputs": [
        {
          "internalType": "address",
          "name": "_exchange",
          "type": "address"
        },
        {
          "internalType": "address",
          "name": "_weth",
          "type": "address"
        },
        {
          "internalType": "address",
          "name": "_erc20Proxy",
          "type": "address"
        },
        {
          "internalType": "address",
          "name": "_feeCollector",
          "type": "address"
        }
      ],
      "payable": false,
      "stateMutability": "nonpayable",
      "type": "constructor"
    },
    {
      "constant": true,
      "inputs": [],
      "name": "ERC1155_BATCH_RECEIVED",
      "outputs": [
        {
          "internalType": "bytes4",
          "name": "",
          "type": "bytes4"
        }
      ],
      "payable": false,
      "stateMutability": "view",
      "type": "function"
    },
    {
      "constant": true,
      "inputs": [],
      "name": "ERC1155_RECEIVED",
      "outputs": [
        {
          "internalType": "bytes4",
          "name": "",
          "type": "bytes4"
        }
      ],
      "payable": false,
      "stateMutability": "view",
      "type": "function"
    },
    {
      "constant": true,
      "inputs": [],
      "name": "WETH",
      "outputs": [
        {
          "internalType": "contract IEtherToken",
          "name": "",
          "type": "address"
        }
      ],
      "payable": false,
      "stateMutability": "view",
      "type": "function"
    },
    {
      "constant": true,
      "inputs": [],
      "name": "exchange",
      "outputs": [
        {
          "internalType": "address",
          "name": "",
          "type": "address"
        }
      ],
      "payable": false,
      "stateMutability": "view",
      "type": "function"
    },
    {
      "constant": false,
      "inputs": [
        {
          "components": [
            {
              "internalType": "address",
              "name": "makerAddress",
              "type": "address"
            },
            {
              "internalType": "address",
              "name": "takerAddress",
              "type": "address"
            },
            {
              "internalType": "address",
              "name": "feeRecipientAddress",
              "type": "address"
            },
            {
              "internalType": "address",
              "name": "senderAddress",
              "type": "address"
            },
            {
              "internalType": "uint256",
              "name": "makerAssetAmount",
              "type": "uint256"
            },
            {
              "internalType": "uint256",
              "name": "takerAssetAmount",
              "type": "uint256"
            },
            {
              "internalType": "uint256",
              "name": "makerFee",
              "type": "uint256"
            },
            {
              "internalType": "uint256",
              "name": "takerFee",
              "type": "uint256"
            },
            {
              "internalType": "uint256",
              "name": "expirationTimeSeconds",
              "type": "uint256"
            },
            {
              "internalType": "uint256",
              "name": "salt",
              "type": "uint256"
            },
            {
              "internalType": "bytes",
              "name": "makerAssetData",
              "type": "bytes"
            },
            {
              "internalType": "bytes",
              "name": "takerAssetData",
              "type": "bytes"
            },
            {
              "internalType": "bytes",
              "name": "makerFeeAssetData",
              "type": "bytes"
            },
            {
              "internalType": "bytes",
              "name": "takerFeeAssetData",
              "type": "bytes"
            }
          ],
          "internalType": "struct LibOrder.Order",
          "name": "order",
          "type": "tuple"
        },
        {
          "internalType": "bytes",
          "name": "signature",
          "type": "bytes"
        },
        {
          "internalType": "address",
          "name": "taker",
          "type": "address"
        }
      ],
      "name": "marketBuyOrderWithEth",
      "outputs": [
        {
          "internalType": "uint256",
          "name": "wethSpentAmount",
          "type": "uint256"
        }
      ],
      "payable": true,
      "stateMutability": "payable",
      "type": "function"
    },
    {
      "constant": false,
      "inputs": [
        {
          "internalType": "address",
          "name": "operator",
          "type": "address"
        },
        {
          "internalType": "address",
          "name": "from",
          "type": "address"
        },
        {
          "internalType": "uint256[]",
          "name": "ids",
          "type": "uint256[]"
        },
        {
          "internalType": "uint256[]",
          "name": "values",
          "type": "uint256[]"
        },
        {
          "internalType": "bytes",
          "name": "data",
          "type": "bytes"
        }
      ],
      "name": "onERC1155BatchReceived",
      "outputs": [
        {
          "internalType": "bytes4",
          "name": "",
          "type": "bytes4"
        }
      ],
      "payable": false,
      "stateMutability": "nonpayable",
      "type": "function"
    },
    {
      "constant": false,
      "inputs": [
        {
          "internalType": "address",
          "name": "operator",
          "type": "address"
        },
        {
          "internalType": "address",
          "name": "from",
          "type": "address"
        },
        {
          "internalType": "uint256",
          "name": "id",
          "type": "uint256"
        },
        {
          "internalType": "uint256",
          "name": "value",
          "type": "uint256"
        },
        {
          "internalType": "bytes",
          "name": "data",
          "type": "bytes"
        }
      ],
      "name": "onERC1155Received",
      "outputs": [
        {
          "internalType": "bytes4",
          "name": "",
          "type": "bytes4"
        }
      ],
      "payable": false,
      "stateMutability": "nonpayable",
      "type": "function"
    }
  ],
  "bytecode": "0x60806040523480156200001157600080fd5b5060405162001f8a38038062001f8a8339810160408190526200003491620001ad565b600080546001600160a01b038087166001600160a01b031992831617909255600180548684169216919091179081905560405163095ea7b360e01b815291169063095ea7b3906200008e908590600019906004016200025c565b602060405180830381600087803b158015620000a957600080fd5b505af1158015620000be573d6000803e3d6000fd5b505050506040513d601f19601f82011682018060405250620000e4919081019062000217565b506001600160a01b03811615620001835760015460405163095ea7b360e01b81526001600160a01b039091169063095ea7b3906200012b908490600019906004016200025c565b602060405180830381600087803b1580156200014657600080fd5b505af11580156200015b573d6000803e3d6000fd5b505050506040513d601f19601f8201168201806040525062000181919081019062000217565b505b50505050620002c8565b80516200019a81620002a3565b92915050565b80516200019a81620002bd565b60008060008060808587031215620001c457600080fd5b6000620001d287876200018d565b9450506020620001e5878288016200018d565b9350506040620001f8878288016200018d565b92505060606200020b878288016200018d565b91505092959194509250565b6000602082840312156200022a57600080fd5b6000620002388484620001a0565b949350505050565b6200024b8162000282565b82525050565b6200024b81620002a0565b604081016200026c828562000240565b6200027b602083018462000251565b9392505050565b60006200019a8262000294565b151590565b6001600160a01b031690565b90565b620002ae8162000282565b8114620002ba57600080fd5b50565b620002ae816200028f565b611cb280620002d86000396000f3fe6080604052600436106100705760003560e01c8063d2f7265a1161004e578063d2f7265a146100ed578063e0a5c9491461010f578063f23a6e6114610124578063fc67bf1c1461014457610070565b80639839deee14610075578063ad5c46481461009e578063bc197c81146100c0575b600080fd5b6100886100833660046116b1565b610159565b6040516100959190611ab4565b60405180910390f35b3480156100aa57600080fd5b506100b3610377565b6040516100959190611a4b565b3480156100cc57600080fd5b506100e06100db3660046114ee565b610393565b6040516100959190611a3d565b3480156100f957600080fd5b506101026103c0565b6040516100959190611984565b34801561011b57600080fd5b506100e06103dc565b34801561013057600080fd5b506100e061013f3660046115b8565b610400565b34801561015057600080fd5b506100e061042b565b600034156101e557600160009054906101000a900473ffffffffffffffffffffffffffffffffffffffff1673ffffffffffffffffffffffffffffffffffffffff1663d0e30db0346040518263ffffffff1660e01b81526004016000604051808303818588803b1580156101cb57600080fd5b505af11580156101df573d6000803e3d6000fd5b50505050505b60a08401516040516060917f9b44d55600000000000000000000000000000000000000000000000000000000916102229188918890602401611a82565b604080517fffffffffffffffffffffffffffffffffffffffffffffffffffffffffffffffe08184030181529181526020820180517bffffffffffffffffffffffffffffffffffffffffffffffffffffffff167fffffffff00000000000000000000000000000000000000000000000000000000909416939093179092526000805492519193509173ffffffffffffffffffffffffffffffffffffffff16906102cb908490611978565b6000604051808303816000865af19150503d8060008114610308576040519150601f19603f3d011682016040523d82523d6000602084013e61030d565b606091505b505090508015610365576080860151610140870151610335913090879063ffffffff61044f16565b8560a001513411156103605761036061035b8760a001513461069090919063ffffffff16565b6106b4565b61036e565b61036e346106b4565b50509392505050565b60015473ffffffffffffffffffffffffffffffffffffffff1681565b7fbc197c810000000000000000000000000000000000000000000000000000000098975050505050505050565b60005473ffffffffffffffffffffffffffffffffffffffff1681565b7ff23a6e610000000000000000000000000000000000000000000000000000000081565b7ff23a6e61000000000000000000000000000000000000000000000000000000009695505050505050565b7fbc197c810000000000000000000000000000000000000000000000000000000081565b806104595761068a565b600061046b858263ffffffff61077416565b90507fffffffff0000000000000000000000000000000000000000000000000000000081167ff47261b00000000000000000000000000000000000000000000000000000000014806104fe57507fffffffff0000000000000000000000000000000000000000000000000000000081167fdc1600f300000000000000000000000000000000000000000000000000000000145b1561051a576105158585858563ffffffff6107c016565b610688565b7fffffffff0000000000000000000000000000000000000000000000000000000081167f02571792000000000000000000000000000000000000000000000000000000001415610576576105158585858563ffffffff61080a16565b7fffffffff0000000000000000000000000000000000000000000000000000000081167fa7cb5fb70000000000000000000000000000000000000000000000000000000014156105d2576105158585858563ffffffff6108d916565b7fffffffff0000000000000000000000000000000000000000000000000000000081167f94cfcdd700000000000000000000000000000000000000000000000000000000141561062e576105158585858563ffffffff610a2f16565b7fffffffff0000000000000000000000000000000000000000000000000000000081167fc339d10a00000000000000000000000000000000000000000000000000000000146106885761068861068382610ac3565b610b63565b505b50505050565b6000828211156106a9576106a961068360028585610b6b565b508082035b92915050565b8015610771576001546040517f2e1a7d4d00000000000000000000000000000000000000000000000000000000815273ffffffffffffffffffffffffffffffffffffffff90911690632e1a7d4d90610710908490600401611ab4565b600060405180830381600087803b15801561072a57600080fd5b505af115801561073e573d6000803e3d6000fd5b505060405133925083156108fc02915083906000818181858888f1935050505015801561076f573d6000803e3d6000fd5b505b50565b60008160040183511015610795576107956106836003855185600401610c11565b5001602001517fffffffff000000000000000000000000000000000000000000000000000000001690565b60006107d385601063ffffffff610c3016565b905073ffffffffffffffffffffffffffffffffffffffff84163014156107fe57610515818484610c70565b61068881858585610d31565b8060011461081e5761081e61068382610df4565b600061083185601063ffffffff610c3016565b9050600061084686602463ffffffff610e0f16565b6040517f23b872dd00000000000000000000000000000000000000000000000000000000815290915073ffffffffffffffffffffffffffffffffffffffff8316906323b872dd9061089f908890889086906004016119f2565b600060405180830381600087803b1580156108b957600080fd5b505af11580156108cd573d6000803e3d6000fd5b50505050505050505050565b600060608060606108f7600489518a610e1b9092919063ffffffff16565b80602001905161090a9190810190611445565b9350935093509350600082519050606081604051908082528060200260200182016040528015610944578160200160208202803883390190505b50905060005b828114610996576109778886838151811061096157fe5b6020026020010151610e9b90919063ffffffff16565b82828151811061098357fe5b602090810291909101015260010161094a565b506040517f2eb2c2d600000000000000000000000000000000000000000000000000000000815273ffffffffffffffffffffffffffffffffffffffff871690632eb2c2d6906109f1908c908c908a9087908a90600401611992565b600060405180830381600087803b158015610a0b57600080fd5b505af1158015610a1f573d6000803e3d6000fd5b5050505050505050505050505050565b606080610a496004875188610e1b9092919063ffffffff16565b806020019051610a5c9190810190611648565b8051919350915060005b818114610ab957610ab1838281518110610a7c57fe5b60200260200101518888610aac888681518110610a9557fe5b60200260200101518a610e9b90919063ffffffff16565b61044f565b600101610a66565b5050505050505050565b6060637996a27160e01b82604051602401610ade9190611a3d565b604080517fffffffffffffffffffffffffffffffffffffffffffffffffffffffffffffffe08184030181529190526020810180517bffffffffffffffffffffffffffffffffffffffffffffffffffffffff167fffffffff000000000000000000000000000000000000000000000000000000009093169290921790915290505b919050565b805160208201fd5b606063e946c1bb60e01b848484604051602401610b8a93929190611a59565b604080517fffffffffffffffffffffffffffffffffffffffffffffffffffffffffffffffe08184030181529190526020810180517bffffffffffffffffffffffffffffffffffffffffffffffffffffffff167fffffffff000000000000000000000000000000000000000000000000000000009093169290921790915290505b9392505050565b6060632800659560e01b848484604051602401610b8a93929190611a74565b60008160140183511015610c5157610c516106836004855185601401610c11565b50016014015173ffffffffffffffffffffffffffffffffffffffff1690565b6040516060907fa9059cbb0000000000000000000000000000000000000000000000000000000090610ca89085908590602401611a22565b604080517fffffffffffffffffffffffffffffffffffffffffffffffffffffffffffffffe08184030181529190526020810180517bffffffffffffffffffffffffffffffffffffffffffffffffffffffff167fffffffff0000000000000000000000000000000000000000000000000000000090931692909217909152905061068a8482610ecc565b6040516060907f23b872dd0000000000000000000000000000000000000000000000000000000090610d6b908690869086906024016119f2565b604080517fffffffffffffffffffffffffffffffffffffffffffffffffffffffffffffffe08184030181529190526020810180517bffffffffffffffffffffffffffffffffffffffffffffffffffffffff167fffffffff000000000000000000000000000000000000000000000000000000009093169290921790915290506106888582610ecc565b606063baffa47460e01b82604051602401610ade9190611ab4565b6000610c0a8383610f84565b606081831115610e3457610e3461068360008585610c11565b8351821115610e4d57610e4d6106836001848751610c11565b8282036040519080825280601f01601f191660200182016040528015610e7a576020820181803883390190505b509050610c0a610e8982610fae565b84610e9387610fae565b018351610fb4565b600082610eaa575060006106ae565b82820282848281610eb757fe5b0414610c0a57610c0a61068360018686610b6b565b600060608373ffffffffffffffffffffffffffffffffffffffff1683604051610ef59190611978565b6000604051808303816000865af19150503d8060008114610f32576040519150601f19603f3d011682016040523d82523d6000602084013e610f37565b606091505b50915091508115610f7b578051610f4f57505061076f565b805160201415610f7b576000610f66826000610e0f565b90508060011415610f795750505061076f565b505b61068a81610b63565b60008160200183511015610fa557610fa56106836005855185602001610c11565b50016020015190565b60200190565b6020811015610fde576001816020036101000a038019835116818551168082178652505050611073565b82821415610feb57611073565b828211156110255760208103905080820181840181515b8285101561101d578451865260209586019590940193611002565b905250611073565b60208103905080820181840183515b8186121561106e57825182527fffffffffffffffffffffffffffffffffffffffffffffffffffffffffffffffe09283019290910190611034565b855250505b505050565b80356106ae81611c52565b80516106ae81611c52565b600082601f83011261109f57600080fd5b81516110b26110ad82611ae9565b611ac2565b81815260209384019390925082018360005b838110156110f057815186016110da8882611244565b84525060209283019291909101906001016110c4565b5050505092915050565b60008083601f84011261110c57600080fd5b50813567ffffffffffffffff81111561112457600080fd5b60208301915083602082028301111561113c57600080fd5b9250929050565b600082601f83011261115457600080fd5b81516111626110ad82611ae9565b9150818183526020840193506020810190508385602084028201111561118757600080fd5b60005b838110156110f0578161119d888261143a565b845250602092830192919091019060010161118a565b60008083601f8401126111c557600080fd5b50813567ffffffffffffffff8111156111dd57600080fd5b60208301915083600182028301111561113c57600080fd5b600082601f83011261120657600080fd5b81356112146110ad82611b0a565b9150808252602083016020830185838301111561123057600080fd5b61123b838284611bde565b50505092915050565b600082601f83011261125557600080fd5b81516112636110ad82611b0a565b9150808252602083016020830185838301111561127f57600080fd5b61123b838284611bea565b60006101c0828403121561129d57600080fd5b6112a86101c0611ac2565b905060006112b68484611078565b82525060206112c784848301611078565b60208301525060406112db84828501611078565b60408301525060606112ef84828501611078565b60608301525060806113038482850161142f565b60808301525060a06113178482850161142f565b60a08301525060c061132b8482850161142f565b60c08301525060e061133f8482850161142f565b60e0830152506101006113548482850161142f565b6101008301525061012061136a8482850161142f565b6101208301525061014082013567ffffffffffffffff81111561138c57600080fd5b611398848285016111f5565b6101408301525061016082013567ffffffffffffffff8111156113ba57600080fd5b6113c6848285016111f5565b6101608301525061018082013567ffffffffffffffff8111156113e857600080fd5b6113f4848285016111f5565b610180830152506101a082013567ffffffffffffffff81111561141657600080fd5b611422848285016111f5565b6101a08301525092915050565b80356106ae81611c66565b80516106ae81611c66565b6000806000806080858703121561145b57600080fd5b60006114678787611083565b945050602085015167ffffffffffffffff81111561148457600080fd5b61149087828801611143565b935050604085015167ffffffffffffffff8111156114ad57600080fd5b6114b987828801611143565b925050606085015167ffffffffffffffff8111156114d657600080fd5b6114e287828801611244565b91505092959194509250565b60008060008060008060008060a0898b03121561150a57600080fd5b60006115168b8b611078565b98505060206115278b828c01611078565b975050604089013567ffffffffffffffff81111561154457600080fd5b6115508b828c016110fa565b9650965050606089013567ffffffffffffffff81111561156f57600080fd5b61157b8b828c016110fa565b9450945050608089013567ffffffffffffffff81111561159a57600080fd5b6115a68b828c016111b3565b92509250509295985092959890939650565b60008060008060008060a087890312156115d157600080fd5b60006115dd8989611078565b96505060206115ee89828a01611078565b95505060406115ff89828a0161142f565b945050606061161089828a0161142f565b935050608087013567ffffffffffffffff81111561162d57600080fd5b61163989828a016111b3565b92509250509295509295509295565b6000806040838503121561165b57600080fd5b825167ffffffffffffffff81111561167257600080fd5b61167e85828601611143565b925050602083015167ffffffffffffffff81111561169b57600080fd5b6116a78582860161108e565b9150509250929050565b6000806000606084860312156116c657600080fd5b833567ffffffffffffffff8111156116dd57600080fd5b6116e98682870161128a565b935050602084013567ffffffffffffffff81111561170657600080fd5b611712868287016111f5565b925050604061172386828701611078565b9150509250925092565b6000611739838361196f565b505060200190565b61174a81611b5d565b82525050565b600061175b82611b50565b6117658185611b54565b935061177083610fae565b8060005b8381101561179e578151611788888261172d565b975061179383610fae565b925050600101611774565b509495945050505050565b61174a81611b68565b60006117bd82611b50565b6117c78185611b54565b93506117d7818560208601611bea565b6117e081611c16565b9093019392505050565b60006117f582611b50565b6117ff8185610b5e565b935061180f818560208601611bea565b9290920192915050565b61174a81611bbd565b61174a81611bc8565b61174a81611bd3565b80516000906101c08401906118498582611741565b50602083015161185c6020860182611741565b50604083015161186f6040860182611741565b5060608301516118826060860182611741565b506080830151611895608086018261196f565b5060a08301516118a860a086018261196f565b5060c08301516118bb60c086018261196f565b5060e08301516118ce60e086018261196f565b506101008301516118e361010086018261196f565b506101208301516118f861012086018261196f565b5061014083015184820361014086015261191282826117b2565b91505061016083015184820361016086015261192e82826117b2565b91505061018083015184820361018086015261194a82826117b2565b9150506101a08301518482036101a086015261196682826117b2565b95945050505050565b61174a81611bba565b6000610c0a82846117ea565b602081016106ae8284611741565b60a081016119a08288611741565b6119ad6020830187611741565b81810360408301526119bf8186611750565b905081810360608301526119d38185611750565b905081810360808301526119e781846117b2565b979650505050505050565b60608101611a008286611741565b611a0d6020830185611741565b611a1a604083018461196f565b949350505050565b60408101611a308285611741565b610c0a602083018461196f565b602081016106ae82846117a9565b602081016106ae8284611819565b60608101611a678286611822565b611a0d602083018561196f565b60608101611a67828661182b565b60608082528101611a938186611834565b9050611aa2602083018561196f565b818103604083015261196681846117b2565b602081016106ae828461196f565b60405181810167ffffffffffffffff81118282101715611ae157600080fd5b604052919050565b600067ffffffffffffffff821115611b0057600080fd5b5060209081020190565b600067ffffffffffffffff821115611b2157600080fd5b506020601f919091017fffffffffffffffffffffffffffffffffffffffffffffffffffffffffffffffe0160190565b5190565b90815260200190565b60006106ae82611ba1565b7fffffffff000000000000000000000000000000000000000000000000000000001690565b80610b5e81611c3e565b80610b5e81611c48565b73ffffffffffffffffffffffffffffffffffffffff1690565b90565b60006106ae82611b5d565b60006106ae82611b8d565b60006106ae82611b97565b82818337506000910152565b60005b83811015611c05578181015183820152602001611bed565b8381111561068a5750506000910152565b601f017fffffffffffffffffffffffffffffffffffffffffffffffffffffffffffffffe01690565b6004811061077157fe5b6008811061077157fe5b611c5b81611b5d565b811461077157600080fd5b611c5b81611bba56fea365627a7a72315820827f6917b6f96b9354df9da309752cb2d1c51f323c89beb2738c3d361e73c49e6c6578706572696d656e74616cf564736f6c63430005110040",
  "linkReferences": {},
  "deployedLinkReferences": {}
}